{
  "contractName": "ERC20Swap",
  "abi": [
    {
      "inputs": [
        {
          "name": "_keyHash",
          "type": "bytes32"
        },
        {
          "name": "_expiration",
          "type": "uint256"
        },
        {
          "name": "_recipient",
          "type": "address"
        },
        {
          "name": "_tokenAddress",
          "type": "address"
        }
      ],
      "payable": false,
      "stateMutability": "nonpayable",
      "type": "constructor"
    },
    {
      "constant": false,
      "inputs": [
        {
          "name": "preHash",
          "type": "bytes32"
        }
      ],
      "name": "claim",
      "outputs": [],
      "payable": false,
      "stateMutability": "nonpayable",
      "type": "function"
    },
    {
      "constant": false,
      "inputs": [],
      "name": "expire",
      "outputs": [],
      "payable": false,
      "stateMutability": "nonpayable",
      "type": "function"
    }
  ],
  "bytecode": "0x608060405234801561001057600080fd5b506040516080806106ba83398101806040528101908080519060200190929190805190602001909291908051906020019092919080519060200190929190505050836000816000191690555081600360006101000a81548173ffffffffffffffffffffffffffffffffffffffff021916908373ffffffffffffffffffffffffffffffffffffffff1602179055508260018190555080600460006101000a81548173ffffffffffffffffffffffffffffffffffffffff021916908373ffffffffffffffffffffffffffffffffffffffff16021790555033600260006101000a81548173ffffffffffffffffffffffffffffffffffffffff021916908373ffffffffffffffffffffffffffffffffffffffff16021790555050505050610581806101396000396000f30060806040526004361061004c576000357c0100000000000000000000000000000000000000000000000000000000900463ffffffff16806379599f9614610051578063bd66528a14610068575b600080fd5b34801561005d57600080fd5b50610066610099565b005b34801561007457600080fd5b5061009760048036038101908080356000191690602001909291905050506102a9565b005b6000806001544211156102a557600460009054906101000a900473ffffffffffffffffffffffffffffffffffffffff1691508173ffffffffffffffffffffffffffffffffffffffff166370a08231306040518263ffffffff167c0100000000000000000000000000000000000000000000000000000000028152600401808273ffffffffffffffffffffffffffffffffffffffff1673ffffffffffffffffffffffffffffffffffffffff168152602001915050602060405180830381600087803b15801561016657600080fd5b505af115801561017a573d6000803e3d6000fd5b505050506040513d602081101561019057600080fd5b810190808051906020019092919050505090508173ffffffffffffffffffffffffffffffffffffffff1663a9059cbb600260009054906101000a900473ffffffffffffffffffffffffffffffffffffffff16836040518363ffffffff167c0100000000000000000000000000000000000000000000000000000000028152600401808373ffffffffffffffffffffffffffffffffffffffff1673ffffffffffffffffffffffffffffffffffffffff16815260200182815260200192505050602060405180830381600087803b15801561026857600080fd5b505af115801561027c573d6000803e3d6000fd5b505050506040513d602081101561029257600080fd5b8101908080519060200190929190505050505b5050565b600080600054600019166002846040518082600019166000191681526020019150506020604051808303816000865af11580156102ea573d6000803e3d6000fd5b5050506040513d60208110156102ff57600080fd5b81019080805190602001909291905050506000191614801561036e5750600360009054906101000a900473ffffffffffffffffffffffffffffffffffffffff1673ffffffffffffffffffffffffffffffffffffffff163373ffffffffffffffffffffffffffffffffffffffff16145b1561055057600460009054906101000a900473ffffffffffffffffffffffffffffffffffffffff1691508173ffffffffffffffffffffffffffffffffffffffff166370a08231306040518263ffffffff167c0100000000000000000000000000000000000000000000000000000000028152600401808273ffffffffffffffffffffffffffffffffffffffff1673ffffffffffffffffffffffffffffffffffffffff168152602001915050602060405180830381600087803b15801561043357600080fd5b505af1158015610447573d6000803e3d6000fd5b505050506040513d602081101561045d57600080fd5b810190808051906020019092919050505090508173ffffffffffffffffffffffffffffffffffffffff1663a9059cbb33836040518363ffffffff167c0100000000000000000000000000000000000000000000000000000000028152600401808373ffffffffffffffffffffffffffffffffffffffff1673ffffffffffffffffffffffffffffffffffffffff16815260200182815260200192505050602060405180830381600087803b15801561051357600080fd5b505af1158015610527573d6000803e3d6000fd5b505050506040513d602081101561053d57600080fd5b8101908080519060200190929190505050505b5050505600a165627a7a72305820a690b86c75373ff9f535944e0a4356cf636ef61538bbe4390fa9da85201ca0e70029",
  "source": "import 'openzeppelin-solidity/contracts/token/ERC20/ERC20.sol';\n\npragma solidity ^0.4.21;\n\ncontract ERC20Swap {\n  bytes32 keyHash;\n  uint expiration;\n  address deployer;\n  address recipient;\n  address tokenAddress;\n\n  constructor (bytes32 _keyHash, uint _expiration, address _recipient, address _tokenAddress) public {\n    keyHash = _keyHash;\n    recipient = _recipient;\n    expiration = _expiration;\n    tokenAddress = _tokenAddress;\n    deployer = msg.sender;\n  }\n\n  function claim (bytes32 preHash) public {\n    if (sha256(preHash) == keyHash && msg.sender == recipient) {\n      ERC20 token = ERC20(tokenAddress);\n      uint256 b = token.balanceOf(address(this));\n      token.transfer(msg.sender, b);\n    }\n  }\n\n  function expire () public {\n    if (now > expiration) {\n      ERC20 token = ERC20(tokenAddress);\n      uint256 b = token.balanceOf(address(this));\n      token.transfer(deployer, b);\n    }\n  }\n}",
  "sourcePath": "/Users/tingtinglee/hack/CAL2/contracts/ERC20Swap.sol",
  "compiler": {
    "name": "solc",
    "version": "0.4.24+commit.e67f0147.Emscripten.clang"
  },
  "schemaVersion": "2.0.1",
  "updatedAt": "2018-10-07T01:33:55.043Z"
}